{
  "contractName": "SupplyChain",
  "abi": [
    {
      "inputs": [],
      "payable": false,
      "stateMutability": "nonpayable",
      "type": "constructor"
    },
    {
      "constant": true,
      "inputs": [],
      "name": "g_participant_id",
      "outputs": [
        {
          "internalType": "uint32",
          "name": "",
          "type": "uint32"
        }
      ],
      "payable": false,
      "stateMutability": "view",
      "type": "function"
    },
    {
      "constant": true,
      "inputs": [],
      "name": "owner",
      "outputs": [
        {
          "internalType": "address",
          "name": "",
          "type": "address"
        }
      ],
      "payable": false,
      "stateMutability": "view",
      "type": "function"
    },
    {
      "constant": true,
      "inputs": [
        {
          "internalType": "uint32",
          "name": "",
          "type": "uint32"
        }
      ],
      "name": "participants",
      "outputs": [
        {
          "internalType": "uint32",
          "name": "participantID",
          "type": "uint32"
        },
        {
          "internalType": "string",
          "name": "userName",
          "type": "string"
        },
        {
          "internalType": "string",
          "name": "participantType",
          "type": "string"
        },
        {
          "internalType": "address",
          "name": "participantAddress",
          "type": "address"
        }
      ],
      "payable": false,
      "stateMutability": "view",
      "type": "function"
    },
    {
      "constant": false,
      "inputs": [
        {
          "internalType": "string",
          "name": "_name",
          "type": "string"
        },
        {
          "internalType": "string",
          "name": "_pType",
          "type": "string"
        },
        {
          "internalType": "address",
          "name": "_pAddress",
          "type": "address"
        }
      ],
      "name": "addParticipant",
      "outputs": [
        {
          "internalType": "uint256",
          "name": "",
          "type": "uint256"
        }
      ],
      "payable": false,
      "stateMutability": "nonpayable",
      "type": "function"
    },
    {
      "constant": true,
      "inputs": [
        {
          "internalType": "uint32",
          "name": "_participant_id",
          "type": "uint32"
        }
      ],
      "name": "getParticipant",
      "outputs": [
        {
          "internalType": "string",
          "name": "",
          "type": "string"
        },
        {
          "internalType": "address",
          "name": "",
          "type": "address"
        },
        {
          "internalType": "string",
          "name": "",
          "type": "string"
        }
      ],
      "payable": false,
      "stateMutability": "view",
      "type": "function"
    }
  ],
  "bytecode": "0x6080604052336000806101000a81548173ffffffffffffffffffffffffffffffffffffffff021916908373ffffffffffffffffffffffffffffffffffffffff16021790555060008060146101000a81548163ffffffff021916908363ffffffff160217905550600060015534801561007657600080fd5b50610b3c806100866000396000f3fe608060405234801561001057600080fd5b50600436106100575760003560e01c80633b26a65d1461005c5780634f543b06146101a85780637d0a9ac91461032e5780638da5cb5b1461048d578063d1315493146104d7575b600080fd5b61008e6004803603602081101561007257600080fd5b81019080803563ffffffff169060200190929190505050610501565b60405180806020018473ffffffffffffffffffffffffffffffffffffffff1673ffffffffffffffffffffffffffffffffffffffff16815260200180602001838103835286818151815260200191508051906020019080838360005b838110156101045780820151818401526020810190506100e9565b50505050905090810190601f1680156101315780820380516001836020036101000a031916815260200191505b50838103825284818151815260200191508051906020019080838360005b8381101561016a57808201518184015260208101905061014f565b50505050905090810190601f1680156101975780820380516001836020036101000a031916815260200191505b509550505050505060405180910390f35b610318600480360360608110156101be57600080fd5b81019080803590602001906401000000008111156101db57600080fd5b8201836020820111156101ed57600080fd5b8035906020019184600183028401116401000000008311171561020f57600080fd5b91908080601f016020809104026020016040519081016040528093929190818152602001838380828437600081840152601f19601f8201169050808301925050505050505091929192908035906020019064010000000081111561027257600080fd5b82018360208201111561028457600080fd5b803590602001918460018302840111640100000000831117156102a657600080fd5b91908080601f016020809104026020016040519081016040528093929190818152602001838380828437600081840152601f19601f820116905080830192505050505050509192919290803573ffffffffffffffffffffffffffffffffffffffff1690602001909291905050506106d3565b6040518082815260200191505060405180910390f35b6103606004803603602081101561034457600080fd5b81019080803563ffffffff169060200190929190505050610897565b604051808563ffffffff1663ffffffff16815260200180602001806020018473ffffffffffffffffffffffffffffffffffffffff1673ffffffffffffffffffffffffffffffffffffffff168152602001838103835286818151815260200191508051906020019080838360005b838110156103e85780820151818401526020810190506103cd565b50505050905090810190601f1680156104155780820380516001836020036101000a031916815260200191505b50838103825285818151815260200191508051906020019080838360005b8381101561044e578082015181840152602081019050610433565b50505050905090810190601f16801561047b5780820380516001836020036101000a031916815260200191505b50965050505050505060405180910390f35b610495610a27565b604051808273ffffffffffffffffffffffffffffffffffffffff1673ffffffffffffffffffffffffffffffffffffffff16815260200191505060405180910390f35b6104df610a4c565b604051808263ffffffff1663ffffffff16815260200191505060405180910390f35b606060006060600260008563ffffffff1663ffffffff168152602001908152602001600020600101600260008663ffffffff1663ffffffff16815260200190815260200160002060030160009054906101000a900473ffffffffffffffffffffffffffffffffffffffff16600260008763ffffffff1663ffffffff168152602001908152602001600020600201828054600181600116156101000203166002900480601f0160208091040260200160405190810160405280929190818152602001828054600181600116156101000203166002900480156106235780601f106105f857610100808354040283529160200191610623565b820191906000526020600020905b81548152906001019060200180831161060657829003601f168201915b50505050509250808054600181600116156101000203166002900480601f0160208091040260200160405190810160405280929190818152602001828054600181600116156101000203166002900480156106bf5780601f10610694576101008083540402835291602001916106bf565b820191906000526020600020905b8154815290600101906020018083116106a257829003601f168201915b505050505090509250925092509193909250565b600080601481819054906101000a900463ffffffff168092919060010191906101000a81548163ffffffff021916908363ffffffff16021790555050600060149054906101000a900463ffffffff16600260008060149054906101000a900463ffffffff1663ffffffff1663ffffffff16815260200190815260200160002060000160006101000a81548163ffffffff021916908363ffffffff16021790555083600260008060149054906101000a900463ffffffff1663ffffffff1663ffffffff16815260200190815260200160002060010190805190602001906107ba929190610a62565b5081600260008060149054906101000a900463ffffffff1663ffffffff1663ffffffff16815260200190815260200160002060030160006101000a81548173ffffffffffffffffffffffffffffffffffffffff021916908373ffffffffffffffffffffffffffffffffffffffff16021790555082600260008060149054906101000a900463ffffffff1663ffffffff1663ffffffff1681526020019081526020016000206002019080519060200190610874929190610a62565b50600060149054906101000a900463ffffffff1663ffffffff1690509392505050565b60026020528060005260406000206000915090508060000160009054906101000a900463ffffffff1690806001018054600181600116156101000203166002900480601f0160208091040260200160405190810160405280929190818152602001828054600181600116156101000203166002900480156109595780601f1061092e57610100808354040283529160200191610959565b820191906000526020600020905b81548152906001019060200180831161093c57829003601f168201915b505050505090806002018054600181600116156101000203166002900480601f0160208091040260200160405190810160405280929190818152602001828054600181600116156101000203166002900480156109f75780601f106109cc576101008083540402835291602001916109f7565b820191906000526020600020905b8154815290600101906020018083116109da57829003601f168201915b5050505050908060030160009054906101000a900473ffffffffffffffffffffffffffffffffffffffff16905084565b6000809054906101000a900473ffffffffffffffffffffffffffffffffffffffff1681565b600060149054906101000a900463ffffffff1681565b828054600181600116156101000203166002900490600052602060002090601f016020900481019282601f10610aa357805160ff1916838001178555610ad1565b82800160010185558215610ad1579182015b82811115610ad0578251825591602001919060010190610ab5565b5b509050610ade9190610ae2565b5090565b610b0491905b80821115610b00576000816000905550600101610ae8565b5090565b9056fea265627a7a723158206dd8218e2674234570061c87321de873326553facd2766805f479bcf752246bd64736f6c63430005100032",
  "source": "// SPDX-License-IDentifier: MIT\npragma solidity >=0.4.22 <0.9.0;\n\ncontract SupplyChain {\n  address public owner = msg.sender;\n  uint32 public g_participant_id = 0;\n  uint256 NULL_NUMBER = 0;\n\n  // participants\n  struct participant {\n    uint32 participantID;\n    string userName;\n    string participantType;\n    address participantAddress;\n  }\n\n  mapping(uint32 => participant) public participants;\n\n  constructor() public {}\n\n  // ===== participant =====\n  function addParticipant(\n    string memory _name,\n    string memory _pType,\n    address _pAddress\n  ) public returns (uint256) {\n    {\n      g_participant_id++;\n      participants[g_participant_id].participantID = g_participant_id;\n      participants[g_participant_id].userName = _name;\n      participants[g_participant_id].participantAddress = _pAddress;\n      participants[g_participant_id].participantType = _pType;\n\n      return g_participant_id;\n    }\n  }\n\n  function getParticipant(uint32 _participant_id)\n    public\n    view\n    returns (\n      string memory,\n      address,\n      string memory\n    )\n  {\n    return (\n      participants[_participant_id].userName,\n      participants[_participant_id].participantAddress,\n      participants[_participant_id].participantType\n    );\n  }\n}\n",
  "sourcePath": "C:\\Users\\donfr\\workspace\\SoliditySupplyChain\\contracts\\SupplyChain.sol",
  "compiler": {
    "name": "solc",
    "version": "0.5.16+commit.9c3226ce.Emscripten.clang"
  },
  "schemaVersion": "3.4.6",
  "updatedAt": "2022-04-15T21:27:42.983Z",
  "devdoc": {
    "methods": {}
  },
  "userdoc": {
    "methods": {}
  }
}